:020000040800F2
:1000000010050020A13500087D3500087F35000867
:1000100081350008833500088535000800000000A0
:10002000000000000000000000000000873500080C
:1000300089350008000000008B3500088D35000868
:10004000B9350008BD350008C1350008C5350008C0
:10005000C9350008CD350008D1350008D535000870
:10006000D9350008DD350008E1350008E535000820
:10007000E9350008ED350008F1350008F5350008D0
:10008000F9350008FD35000801360008053600087E
:10009000093600080D36000811360008153600082C
:1000A000193600081D3600082136000825360008DC
:1000B000293600082D36000831360008353600088C
:1000C000393600083D36000841360008453600083C
:1000D000493600084D3600085136000855360008EC
:1000E000593600085D36000861360008653600089C
:1000F000693600086D36000871360008753600084C
:10010000793600087D3600088136000885360008FB
:10011000893600088D3600089136000895360008AB
:10012000993600089D360008A1360008A53600085B
:10013000A9360008AD360008B1360008B53600080B
:10014000B9360008BD360008C1360008C5360008BB
:10015000C9360008CD360008D1360008D53600086B
:10016000D9360008DD360008E1360008E53600081B
:10017000E9360008ED360008F136000800000000FE
:10018000F5360008F936000840F0200070472DE9E8
:10019000F14FB0B0924604910DF142013A9A2B9181
:1001A00099464A7000200AE01AF8011B0498309A18
:1001B00090470028049000F031860D98401C0D9067
:1001C0009AF8000050B12528EED1002100220791B5
:1001D000089209910A920B910C9204E00D9800F09C
:1001E0001FBE41F001011AF8010F2028F9D0232881
:1001F0000CD02B2804D02D2805D0302809D00BE0B6
:1002000041F00201EFE741F00401ECE741F00801A1
:10021000E9E741F01001E6E72A280FD1D9F80020DC
:1002200052F8040BC9F8002000280F9003D5404273
:100230000F9041F004010AF1010A14E00F92DFF877
:10024000E83B0AE00F98984205DA00EB800402EBE5
:100250004402303A0F920AF1010A9AF80020A2F102
:1002600030000A28EED39AF800002E2803D04FF071
:10027000FF320E9229E01AF8010F2A2809D1D9F885
:10028000000050F8042BC9F800000E920AF1010A90
:100290001BE02D280CBF0AF1010A002000220E925B
:1002A000DFF8844B0BE040B90E9AA24205DA02EB6C
:1002B000820503EB4503303B0E930AF1010A9AF8DD
:1002C0000030A3F130020A2AEDD3ADF840100FF64A
:1002D0005C309AF8001000F0C9FE08B11AF8010B62
:1002E0008DF842009DF84200682805D19AF8000078
:1002F00068280CD1622106E06C2804BF9AF800003F
:100300006C2804D171218DF842100AF1010A12A85B
:1003100006901AF801BBBBF125012CD01C3900F066
:100320009481091F022940F29081133900F0A884BA
:10033000093900F08A81891E00F03D85491E00F0D0
:10034000EA84491E022940F28081091F00F0E384FB
:10035000491F00F0EF80491E00F09284491E00F012
:10036000D780C91E0CD0891E00F08A84C91E00F0F7
:10037000878400F02BBD01220792252100F023BDC8
:10038000D9F8000050F8044BC9F80000002C05947F
:1003900040F0AB802B994878002800F0A1804FF006
:1003A000FF340FF6902000F071FE201A40F03685E1
:1003B00000F018BD01236A4602A9304600F0FEFD98
:1003C000002840F02B856D1EF4D13096079D12AFAA
:1003D00075B1309E17F8011B0498B04700280490AF
:1003E00000F01C850D98401C6D1E0D90F2D13096CA
:1003F0000A9D3021002D8DF800100CDD309E012368
:100400006A4602A9304600F0D9FD002840F0068572
:100410006D1EF4D13096059F089D75B1309E17F87A
:10042000011B0498B0470028049000F0F7840D9851
:10043000401C6D1E0D90F2D130960B9D3021002D89
:100440008DF800100CDD309E01236A4602A930466B
:1004500000F0B4FD002840F0E1846D1EF4D1309628
:1004600005980899099D471875B1309E17F8011B2A
:100470000498B0470028049000F0D0840D98401CE8
:100480006D1E0D90F2D130960C9D3021002D8DF80F
:1004900000100CDD309E01236A4602A9304600F0B0
:1004A0008DFD002840F0BA846D1EF4D130969DF881
:1004B000400041077FF584AE2020002C8DF800001D
:1004C0007FF77EAE309D01236A4602A9284600F0E0
:1004D00075FD002840F0A284641EF4D130956FE6CB
:1004E0000FF63830059000F07DBC0E9D002D04D530
:1004F000204600F0EBFD044607E02A46204600F0C7
:1005000001FE002814BF041B2C46089400F06ABCAE
:10051000D9F8001051F8040BC9F8001020F00004BD
:10052000002121F0FF35CDE9024512AB059378217A
:1005300000F03DBC2B99487820B14FF0FF340FF606
:10054000AC2030E79DF84200622860D0682817D0C0
:100550006A283FD06C2806D0712847D074282CD048
:100560007A281DD062E0D9F8001051F8040BC9F8C0
:100570000010002866D14FF0FF340FF6882012E7F4
:10058000D9F8001051F8040BC9F8001020B94FF049
:10059000FF340FF6702006E70D99018000F022BCB1
:1005A000D9F8001051F8040BC9F80010002849D1FF
:1005B0004FF0FF340FF64C20F5E6D9F8001051F853
:1005C000040BC9F8001000283CD14FF0FF340FF69F
:1005D0003420E8E6D9F8001051F8040BC9F80010EF
:1005E00080B94FF0FF340FF61C20DCE6D9F800107C
:1005F00051F8040BC9F8001020B94FF0FF340FF682
:100600000420D0E60D9AD317C0E90023EAE3D9F815
:10061000001051F8040BC9F8001020B94FF0FF3456
:100620000FF6E010BFE60D990170DBE3D9F800107A
:1006300051F8040BC9F8001020B94FF0FF340FF641
:10064000C410B0E60D990160CCE39DF842004C283F
:1006500007BFD9F80010CB1DD9F80000C31D23F047
:100660000703C9F80030D3E900010833C9F80030A6
:10067000CDE90201C80F02D007982D210AE0BDF88C
:100680004000810702D507982B2103E0C00705D55C
:100690000798202112AB1954401C079012A8079903
:1006A000DDE9024543184BF020006128059321AE97
:1006B0000BD00E98002802D506200E9005E001BF51
:1006C0004BF02000672801210E91DDE902014F0067
:1006D0007F1517F1010F0DD108030BD0ABF16102AB
:1006E00003201A2A089002D20FF634110FE00FF6F9
:1006F00034110CE017F1010F0ED109030CD1ABF14D
:10070000610203201A2A08901CD30FF6201103223D
:10071000184600F023FD65E3DDE902016A4600F0BA
:1007200071FDCDE902014BF02000612811D105983F
:1007300030210170821C0592BBF1610F0CBF782142
:10074000582102E00FF6E001E1E741700798801CB4
:100750000790DDE9020120F0000231F0004308BFFC
:10076000002A02D10025002445E14BF02008B8F111
:10077000610F40F095800E98002847BF212101911C
:10078000401C0190019F7F1C204629460022002327
:10079000DDE9024500F06EFD38BF85F000450099A7
:1007A0008DF88420091F002F00910DF1850034DDA4
:1007B0000646204629460022002300F075FD2BD274
:1007C0001C2200F08BFD04460D4600F025FEFF1FA5
:1007D000002F804609DD00F03BFE02460B46204616
:1007E000294600F0FDFE04460D46F01D0721B8F134
:1007F000000F0CDD491E5EBF08F00F0200F8012D4E
:100800004FEA2818F3D502E0002200F8012D491E16
:10081000FAD5C61D002FCCDC30460DF18501401AFB
:1008200001990DF1850605468842C8BF0D46002D89
:100830002FD4854206DA0DF18500415D0829A8BF55
:100840000F2000DA0020294621AA0A4400E06D1E8C
:1008500012F80139491E8342F9D00F2804D10DF155
:100860008500425C521C4254002904D50098001DAA
:1008700021AE6D1C0090681E0BD431180A783032FE
:10088000D3B23A2BA4BF5A443A3A401E01F8012988
:10089000F4D50E98002840F1AD80691E0E91A9E0B4
:1008A0000099DFF8082747F29750414391FBF2F295
:1008B000009225F00045C2F10702002A04DD20461F
:1008C000294600F04FFB0BE052420020DFF8E01613
:1008D00000F048FB02460B462046294600F0F2FE97
:1008E00004460D46B8F1660F06BF009F0A3706277B
:1008F0000E983F18142FC8BF142730208DF884009D
:100900000DF1850000E03046002F35DD064620461B
:10091000294600F0FBFF01460A4606F108030420C1
:100920000A26B2FBF6F606EB860EA2EB4E0230323A
:1009300003F8012C0A22B6FBF2F202EB820EA6EBC0
:100940004E063036401E03F8026DE9D1083F002FF5
:1009500003F10806D7DD084600F0EAFF02460B4621
:100960002046294600F03CFE0022DFF8483600F021
:10097000EDFF04460D46CAE70DF18501401A0DF161
:10098000850604E00099491E401E0091761C3178CE
:100990003029F7D0B8F1660F02D10099491C04E064
:1009A000B8F1650F0CBF012100210E9D4D19A84221
:1009B000B8BF451E002D1DD4854204DA705D342871
:1009C000C8BF392000DC30202946721E531800E0D1
:1009D0006D1E13F80149491E8442F9D0392802D10D
:1009E000705C401C7054002904D50098401C1646C9
:1009F0006D1C0090009C01F07FF8406A0778DDF8DC
:100A0000388028B2002802DC01250FF224664BF062
:100A10002000662808BF641C16D0672846D120B283
:100A200010F1040F48DB404546DA9DF84000641C95
:100A3000010703D428B24045D8BF804620B2B8EBA6
:100A4000000848BF4FF000080FFA84FBBBF1000F0D
:100A500000F3B5800898411C0891302205990A548A
:100A6000B8F1000F03DC9DF84000010704D5089899
:100A7000411C089105990F5418EB0B0FB8BFC8F132
:100A8000000424B26042A0442AB20B909045B8BF43
:100A90004546059B08982DB209952A4631461844CB
:100AA00000F05CFBA8EB05000C90D2E0BBF1610FFD
:100AB00017D14FF0700B19E028B2404504DA9DF8C9
:100AC00040100A0758BF8046B8F1010848BF4FF0F0
:100AD0000008BBF1670F14BF4FF0450B4FF0650BDB
:100AE00004E0BBF1410F08BF4FF0500B0898411CC8
:100AF0000891B8F1000F059916F8012B0A5403DC90
:100B00009DF8400001071AD50898411C0891B8F1DA
:100B1000000F05990F5412DD6D1E28B28045B8BF35
:100B200045460598089B2AB23146184400F016FB4A
:100B300008992DB269180891A8EB05000B9005984B
:100B40000899084421B2002980F800B003D42B2270
:100B50004270821C04E02D2242700C46821C6442CA
:100B600000212CAB20460AE004460A2094FBF0F05A
:100B700000EB8005A4EB450403F8014B491C00B2CF
:100B80000028F1DC012906DC4BF02000652804BFB9
:100B9000302002F8010B00292CAB08D1302002F8DC
:100BA000010B06E0491E585C303002F8010B0029A9
:100BB000F8DC059908980844121A099249E028B20D
:100BC00021B288421CDA0598089B2AB231461844A3
:100BD00000F0C4FA08992DB269180891ABEB050032
:100BE000B8F1000F0B9003DC9DF84000020704D51C
:100BF000059847540999491C0991CDF8308028E09F
:100C00000598089B22B23146184400F0A7FA0898CC
:100C10002D1B5844B8F1000F089003DC9DF84010DC
:100C20000A0703D5411C089105990F5428B2804545
:100C3000B8BF45460598089B2AB206EB0B0118443D
:100C400000F08CFA08982DB228180890A8EB05003F
:100C50000B909DF8400000F01400102840F0C28076
:100C6000079A08990B988A18099982180C988A187B
:100C700082180F98824280F2B580821A0A92B1E0FF
:100C80009DF84200622808D068280ED06A2814D047
:100C90006C281FD0712810D01CE0D9F8001051F832
:100CA000040BC9F80010C0B21AE0D9F8001051F8CE
:100CB000040BC9F8001080B212E0D9F80000C21D80
:100CC00022F00702C9F80020D2E900010832C9F871
:100CD000002006E0D9F8001051F8040BC9F8001004
:100CE0000021CDE902019DF8400001075AD5DDE958
:100CF0000223002B08BF002A54D04BF02000782894
:100D000050D1079812A930220A54401C431C079363
:100D100001F800B046E09DF84200622808D068283B
:100D20000ED06A2814D06C281FD0712810D01CE077
:100D3000D9F8001051F8040BC9F8001040B21AE0BD
:100D4000D9F8001051F8040BC9F8001000B212E0F5
:100D5000D9F80000C21D22F00702C9F80020D2E92C
:100D600000010832C9F8002006E0D9F8001051F857
:100D7000040BC9F80010C117CDE90201002902D502
:100D800007982D210AE0BDF84000810702D5079899
:100D90002B2103E0C00705D50798202112AA115482
:100DA000401C079012A8079901440591594602A8D2
:100DB00000F04EF816E001200790D9F8000050F836
:100DC000041BC9F800008DF848100BE00121252212
:100DD000BBF1000F07918DF8482003D00222079243
:100DE0008DF849B00F9A07980A990C9C121A089826
:100DF000521A0B99121A0998521A121A9DF84000A9
:100E0000141B41073FF5E2AA2020002C8DF80000BA
:100E10007FF7DCAA309E2546FFF7CCBA4FF0FF30B3
:100E200031B0BDE8F08F0000CBCCCC0C686A6C749C
:100E30007A4C00007072696E74665F733A2062616A
:100E40006420257320617267756D656E7400000003
:100E50002DE9FC4707468A463C6950466F2808BF83
:100E6000082505D0FFF790F9782814BF0A2510252A
:100E7000D7E900013C2680468946BAF1640F18BFC5
:100E8000BAF1690F05D1002903D5D8F1000869EB43
:100E90004909B9F1000F08BFB8F1000F0CD1386B48
:100EA00050B9082D3AD197F83800010736D53022CD
:100EB0003B2684F83B2031E08DF800A040464946AF
:100EC0002A46EB1700F01CFE3032D0B2761E3A28CC
:100ED00001960EDAA255404649462A46EB1700F025
:100EE0000FFE80465FEA010908BFB8F1000F05D187
:100EF00008E09DF800001218513AEBE7F868A119D4
:100F00008842DBD3082D09D197F83800010705D5B1
:100F1000A05D302802D0761E3020A055C6F13C02DC
:100F2000BA61A119F960386B824208DA821A3A6212
:100F30004FF6EF70398F01403987BDE8F3870028FD
:100F40000ED597F8380000F01400102808D17B6BFC
:100F50007969386A5B1A1B1A9A1A002AC8BF3A6262
:100F6000BDE8F3872DE9D04306460F4614464FF0FF
:100F70000008DFF8449012E0E00707D542464B46F0
:100F80003046394600F0E2FC06460F4640464946E8
:100F900042464B4600F0DAFC641080468946002C3D
:100FA000EAD130463946BDE8D0830000A086010072
:100FB0000000F03F84D7974100002440F8B5054673
:100FC0000E4617461C4600205CB117F8011BB0689E
:100FD000A847B06030B1F06A401CF0620020641E87
:100FE000F3D1F2BD4FF0FF30F2BD00007072696EB8
:100FF00074665F733A20256E20646973616C6C6F50
:10100000776564007072696E74663A20626164206C
:10101000256E20617267756D656E740000000000BA
:101020006E616E004E414E00696E6600494E46008C
:10103000300030B5016884684218416802EB510302
:10104000C90703D54C4401E0491C08D19A4218BF96
:1010500012F9011B01D10C3030BD12F8015B0029DF
:1010600004F8015BF0D4491EF7D5EFE7C9B2027866
:101070008A421AB11CBF10F8012FF9E718BF0020EF
:1010800070470268531C03601170704780B500B947
:1010900006A005490B681BB122220021984701E0F8
:1010A00000F0B1FD222002BD08010020636F6E73C5
:1010B000747261696E742068616E646C65723A2046
:1010C000626164206D6573736167650000F10103FF
:1010D000810704D010F8011B820781B1FAD10268A0
:1010E000A2F10131914311F0803104BF50F8042F77
:1010F000F6E709BAB1FA81F100EBD100401CC01A41
:1011000070472E00C9B2830706D0521E22D310F8B2
:10111000013B9942F7D11FE0083A13D302F10402D0
:1011200041EA012141EA014150F8043B121F21BF6D
:101130004B40A3F1013C2CEA030C1CF0803FF3D0A0
:10114000C9B2001F083210F8013B521E28BF91EAB5
:10115000030FF8D818BF0120401E704762B38B07F9
:1011600008D0521E11F8013B00F8013B00F024802A
:101170008B07F6D1830740F0208000BF103A07D3D9
:1011800030B4B1E83810103AA0E83810F9D230BCC9
:10119000530724BFB1E80810A0E8081044BF51F875
:1011A000043B40F8043BD20724BF31F8022B20F85F
:1011B000022B44BF0B7803707047121F17D35B00DC
:1011C00009D151F8043B20F8023B1B0C121F20F8F8
:1011D000023BF6D20BE051F8043B00F8013B1B0A3E
:1011E00020F8023B1B0C121F00F8013BF3D238BF62
:1011F000121D521E24BF11F8013B00F8013BF8D824
:101200007047000010B5144600F002F8226010BDCF
:10121000C1F30A5343B14A0012F5001F28D2A3F2CA
:10122000FE32A1EB0251704750EA410C20D001F090
:10123000004C31EA0C01B1FA81F204BFB0FA80F33C
:10124000D2180B3AB2F120032CBF00FA03F19140FF
:1012500041EA0C013EBFC2F1200C20FA0CF3194305
:101260009040524240F2FD33D21A01EB03517047D5
:101270000022704741EA030C50EA4C0C52EA0C0C75
:101280004FF4001C09D307D01CEB410F9CBF1CEB93
:10129000430F8B4208BF824270471CEB430FFBD8C1
:1012A000994208BF9042704741EA030C50EA4C0C47
:1012B00052EA0C0C4FF4001C09D307D01CEB410F71
:1012C0009CBF1CEB430F994208BF904270471CEB38
:1012D000410FFBD88B4208BF82427047124254D460
:1012E00040F2FF7C1CEA11530FD0634531D09B18AC
:1012F00063453CBF01EB0251704701F0004141EAF8
:101300000C510020AFF30080704750EA410320D019
:1013100001F0004C91EA0C011CD0B1FA81F30B3BB7
:101320009A420DD9D21A994051EA0C01C3F1200C0E
:1013300020FA0CFC61449840531C40F2FF7CD7E734
:10134000914041EA0C01C2F1200C20FA0CF3194340
:1013500090407047B0FA80F31533202BE0D3202A59
:10136000EED3203A203B9A4209D9D21A00FA03F16F
:1013700041EA0C010020531C40F2FF7CB8E700FA60
:1013800002F141EA0C0100207047524240F2FF7C1A
:101390001CEA11530DD06345DBD0B2EB030C3CBF0C
:1013A000A1EB025170470CF1010221EA035141F413
:1013B000801150EA410CCCD001F0004C352A27DCDA
:1013C00030B481EA0C01B2F1200309DAC2F1200342
:1013D000044601FA03F5D0402843D1409C400CE07C
:1013E000C3F12002450020FA03F418BF44F00104C1
:1013F00021FA03F091400C43002174F1004550F1B3
:10140000000051EB0C01244230BC7FF47BAF7047ED
:101410006146002076E70000C1F30A5340F21E4205
:10142000D31A0CDDCA0283F3070342EA505242F09A
:101430000042DA4002EBE17282EAE17070476FEA43
:10144000E17203F2E13008B182F000407047000021
:1014500010F0004160B148BF4042B0FA80F29040C5
:10146000D21CC2F5846241EA025202EBD02140054F
:1014700070470000841A71EB030604D26E40001B13
:10148000B141121973414FF4001C1CEB410F34BFE2
:101490007CEB430683E00C0DA4EB1356362E00F3D1
:1014A0007C80012E45EAC32341DC43EA525312BF3C
:1014B000D20292025B08240545EAC12141EA50515B
:1014C000D2EBC020994125D407D1B0FA80F610FAAA
:1014D00006F162D00020203608E0B1FA81F6B14072
:1014E000C6F1200220FA02F21143B0404FEAF47430
:1014F000B4EB465434F001064FEA74040AD8D6F52A
:101500000016760D04F00044F04061FA06F25040F7
:10151000F1404840C00A40EA415021F0004128BF54
:101520005FEA500550F1000044EBD12135E0DB0AC1
:1015300045EAC121C90AB6F120050EDD42EA0242A0
:10154000120CC5F1200603FA06F6EB4042EA060546
:101550006D42984161F100010DE062FA06F5F2403A
:10156000554063FA06FC82EA0C02F3405A406D4291
:10157000904161EB030111F4801F05D1641E6205E7
:1015800002D06D004041494121F48011430875F1BA
:10159000004350F1000041EB045170BC70471CEB5C
:1015A000410F15D223F0004352EA43060BD04FEA15
:1015B0004C0CBCEB410F04D80C0D661E342EB7DD6D
:1015C000EBE7801A994150EA410608BF0021E4E7A1
:1015D00008BF1CEB430F28BF6FF00001DDE70000E0
:1015E00070B491EA030F4FF000457FF543AF6B40B5
:1015F000841A71EB030603D2001BB1411219734127
:101600004FF4001C1CEB410F34BF7CEB430442E061
:101610000C0DA4EB1356352E4FDC45EAC323DB0A31
:1016200045EAC121C912B6F120050DDD63FA05F6C0
:10163000EB4086EA0305124218BF45F00105C018C9
:1016400051F100010CD213E062FA06F5F240554068
:10165000F3415A40B340F3405A408018594107D3F0
:1016600049085FEA30005FEA350528BF45F001050B
:1016700001F58011420875F1004250F1000041EB84
:1016800004514E0016F5001F70BC38BF7047002093
:10169000090D090570471CEB410F10D252EA4306B1
:1016A0000BD0BCEB410F05D80C0DAB43661E342E9E
:1016B000B6DD02E0AB438018594170BC704770BC86
:1016C00070470000F0B540F2FF7581EA030C0CF0A2
:1016D000004C15EA11541DBF15EA1357AC42AF4236
:1016E000E5E0BC41C1F31301C3F31303801A994130
:1016F00043F4801304D2641E0018494180185941F4
:10170000C90241EA5051B1FBF3F603FB1611A2FBEB
:101710000675D7EBC020A94102D2761E8018594128
:10172000C90241EA5051B1FBF3FE03FB1E11A2FBBB
:101730000E75D7EBC020A94103D2AEF1010E80187F
:101740005941890241EA9051760546EA8E2EB1FB55
:10175000F3F603FB1611A2FB0675D7EB8020A94117
:1017600002D2761E80185941C90241EA50514EEA10
:10177000060EB1FBF3F603FB1611A2FB0675D7EBC1
:10178000C020A94102D2761E80185941C90241EAFF
:101790005051B1FBF3F703FB1711A2FB0735D3EB55
:1017A000C020A94167F100070CBF004247F00107C4
:1017B00066F3D5274FEA1E31B80814F5806412DDB0
:1017C000BD0775F1004250EB0E5051EB045111F57D
:1017D000801F5CBF41EA0C01F0BD4CF07F6141F01D
:1017E000E0410020F0BDBD076D0840EA0E5041F415
:1017F0008011D4F10104B4F120060ADAC4F1200604
:101800000200E04001FA06F3E1401843B2401543FC
:101810000EE0342C13DCC6F1200445EA40056D08C7
:1018200020FA06F2154321FA06F0A1400D430021EB
:1018300075F1004250F1000051EB0C01F0BD0020A9
:101840005FEA0C01F0BDCFB992185B41B3FA83F7A0
:1018500004BFB2FA82F6BF190B3FB7F120062FBFC3
:1018600002FA06F3BB40C7F1200622FA06F638BF9B
:101870003343BA401CB1E419641E33E77F4231F0B0
:101880000041B1FA81F404BFB0FA80F6A4190B3C10
:10189000B4F120062FBF00FA06F1A140C4F12006E2
:1018A00020FA06F638BF3143A0403C1B1AE7AC4291
:1018B0001ABF05EA1357AF4212E050EA41061CBFB7
:1018C00052EA4306BFE750EA4107304661461CBF73
:1018D00041EA0551F0BD52EA430C08BFC143F0BDD7
:1018E00000204FF4001616EB410F98BF16EB430F84
:1018F00008BF16EB410F24BFC14305E016EB430FB1
:101900000CBF61464CEA0551F0BD0000400D40F2AD
:101910001E4C40EAC120BCEB115C40F0004003D4F7
:101920008CF30701C84070476FEAE1707047000010
:1019300050B1B0FA80F18840C91CC1F58461090535
:1019400001EBD021400570470146704730B540F2A9
:10195000FF7C1CEA11541DBF1CEA13556445654504
:101960003FE0641981EA030C6FF35F530CF0004C05
:1019700043F48013C90241F0004141EA505EC502C0
:101980001100A5FB020200284FF00000EEFB012031
:101990004FF00001E3FB052118BF42F0010240189F
:1019A00000214941E3FB0E01A4F580640D0302D23E
:1019B00092184041494154F1010470DD450872F12B
:1019C000004250F1000051EB0451A1F5801102D406
:1019D00041EA0C0130BD40F2FF7E4CEA0E5100207E
:1019E00030BD0CEA1355644518BF654581EA030C08
:1019F0000CF0004C41D050EA410E1CBF52EA430E9D
:101A000002E06146002030BD24422C441BD15FEA35
:101A1000050EF6D0090302BF01460020AEF1140EF8
:101A2000B1FA81F5AEEB050401FA05FE0C35C5F1FE
:101A3000200100FA05F5C8404EEA000E6FF35F532F
:101A400043F480139CE733F00043B3FA83F504BFFB
:101A5000B2FA82FE75440B3D641BB5F1200E2FBF18
:101A600002FA0EF3AB40C5F1200E22FA0EFE38BF8B
:101A700043EA0E03AA40641C7CE750EA410E14BFFF
:101A800052EA430E6FF000014FF4001515EB430FBF
:101A90008EBF194615EB410F9DE7B4D830BDD4F188
:101AA0000104B4F120050FDAC4F12005520828BF63
:101AB00042F0010210FA05FE01FA05F57244E2BF98
:101AC000E0402843E1400FE0352C9ADCC5F12004CA
:101AD00052EA400220FA05F218BF42F0010231FA40
:101AE00005F0A1400A43002172F1004250F10000CC
:101AF00051EB0C0130BD000000487047C8000020C9
:101B0000D3BBD9B1B2F5803F5BD2022A1ED98C4635
:101B1000B1FBF2F102FB11C31B0443EA1043B3FB18
:101B2000F2FC02FB1C3380B240EA0343B3FBF2F049
:101B300002FB103240EA0C4000237047022A05D90C
:101B40008446B0FBF2F002FB10C270474AB105D1E7
:101B500000F0010249085FEA3000704700220023CC
:101B6000704700F053B80B000200002100207047BE
:101B7000F7D3002200237047904271EB030CF2D39D
:101B800070B5B1FA81F4B3FA83F52C1BA340C4F10C
:101B9000200532FA05F63343A2405FF00046E640E6
:101BA00002E05B085FEA3202841A71EB030524BF8E
:101BB000204629467641F4D302000B003000002174
:101BC00070BD70B5B1FA81F4B2FA82F5C4F12004A7
:101BD0006419B4F12006DAD3B2405FF00044F44057
:101BE000002502E052085FEA3303C61A71EB020EC9
:101BF00024BF3046714664416D41F3D302000B00AF
:101C00002000290070BD012000F002B870470000DC
:101C100080B5AFF30080024A11001820ABBEFBE78D
:101C200026000200F8B5040022D004F13C056978D2
:101C300021B900202870204600F032FC2421697070
:101C400000F0DEFA2068016841F40041016020687C
:101C5000026822F40042026000F018FD014660684C
:101C6000DFF87424904205D2DFF88C34994205D213
:101C70000120F2BDDFF884048142F9D32068DFF847
:101C800080344668B1FBF3F3B60943EA8616466032
:101C90002668376A6068904206D34FF496704343D3
:101CA0004FF47A70B3FBF0F35B1CBF0943EA871370
:101CB0003362491E2368DE696768974206D27F0057
:101CC00000F044F8042913D2042111E0A06820B9DF
:101CD00007EB470700F03AF805E01920474300F00A
:101CE00035F841F4804108050CBF012141F4004161
:101CF000DFF8100406400E43DE6122681368E169D4
:101D0000206A23F0C0030B43034313602268DFF80B
:101D1000F803936821690340E0680B430343936031
:101D20002268D368A16960691B0A41EA032303435F
:101D3000D3602068016841F0010101600020686003
:101D40002021697020630021A970F2BDB1FBF7F179
:101D5000491CC1F30B0170472DE9F84304460E46B8
:101D6000154600F04AFA04F13C07804678782028AE
:101D700008D1CDF8008019230122DFF8901300F07C
:101D80005CFA002840F08080387801287CD001215E
:101D9000397000F03BFA21207870102100F080F9B2
:101DA0002085DFF88403E062E16A082918BF012971
:101DB00004D081421CBF206B122801D100F034FAFC
:101DC000CDF800800022089D2B4600F034FA38B18F
:101DD00020680168CA0550D54FF4007078604CE067
:101DE0002069B0F5804F08BF06F0FE0610D0F1095B
:101DF000206801F0060141F0F001016143462A46E6
:101E0000DFF83813204600F05EFA002835D1F6B22C
:101E10002068DFF82C13066143462A46204600F06E
:101E200052FA002829D1009021684A6900928969F4
:101E30000091009A208D002821D04246294600F0CA
:101E400018FAA8B900F020F9401E208521684A69D7
:101E5000530706D580B220B1606A02780A6100F0AB
:101E600009F942462946204600F09BFA0028E1D0B5
:101E70007868042801D100F0F5F9012005E000F0B0
:101E8000F1F900F01AF900E00220BDE8F2832DE933
:101E9000F84F00F0E0F800F03BF902D100F024F92F
:101EA000002840F0C7803878012800F0C38000F097
:101EB00015F901D400F032F900F006F91021B970DB
:101EC00000207860C6F82490A6F82A80708D3085AE
:101ED000DFF85402F062F16A3268136843F48063F9
:101EE0001360082918BF012904D081421CBF306B40
:101EF000112801D100F0A4F900940022DDF8289007
:101F00004B464FF0011100F0D5F800284FF4007A4D
:101F10002FD13069DFF82882B0F5804F05D13068C5
:101F200045F00105EDB205612FE0E809326800F0E7
:101F3000060B4BF0F001116123464A46DFF8FC1115
:101F400000F086F800286BD13068EDB2056100F032
:101F50007CF8002864D100904B4600F06FF831689F
:101F600000F07AF9009400224FF0011100F0A2F87D
:101F700030B130680168CA0552D5C7F804A04FE0F7
:101F800030684BF0F10BC0F810B000F05EF800289C
:101F900046D1308D18B1012804D100F00FF900F0BE
:101FA000EFF815E002283068016802D100F059F816
:101FB00002E041F480610160002000F03EF807E09B
:101FC00000F0C0F800282BD100F0B0F800F0BFF806
:101FD000308D00282BD004281FD20128F0D00228F1
:101FE000DFF8105200944B460AD100F061F8002847
:101FF00016D100F0EAF8716A0870706A421CE5E7D1
:1020000000F056F800280BD100F020F94B4600F004
:10201000C5F800F04EF818B9EBE700F093F808B1F6
:10202000012008E000F09BF8D2D50069E3E700F05A
:1020300044F800E00220BDE8F28F009031684A6960
:102040000092896900910098704723464A464146AC
:10205000304600F038B906460D469146984600F0E5
:1020600035BB21F4806101603068026842F400628F
:1020700002607047606A411C6162608D411E61852B
:10208000208D411E21857047606A226801781161A8
:10209000606A411C6162608D411E6185208D7047C0
:1020A000B970002078606562A4F82A90608D70474E
:1020B00000222946304600F0DEB82020787000214A
:1020C000B9700020387070473068016821F40061F1
:1020D0000160222078707047A186010001213970CB
:1020E00030680268D107704700941923012207491C
:1020F000304600F0C0B8000080841E0000093D009A
:1021000040420F000030FFFF007CFFFF0200100084
:1021100006F13C070446787820287047026842F0B0
:1021200001020260704700000000FFFF3068016993
:10213000706A0170716A4A1C704700000800010053
:102140000200010022464946304600F047B9308D72
:102150007262411E3185708D411E718570473068F5
:102160000169706A0170716A308D4A1C411E726289
:102170003185708D411E7185306841694A0770470D
:10218000009031684A69009289690091009831682D
:102190000A68084642F400720260704730680169BC
:1021A000706A0170716A308D4A1C411E72623185FD
:1021B0000022708D411E718500947047306801685F
:1021C00021F480610160002070473068016841F4AB
:1021D0000071016030680169706A0170716A308D48
:1021E0004A1C411E72623185708D411E71853268B4
:1021F00010697047040001009046994600F066BAE5
:102200002068026852085200026070472068026825
:10221000D10703D4026842F001020260206801681D
:1022200021F40061016070472068016841F4807109
:102230000160704700224FF00111204600F01BB8EA
:102240003068016841F4807101607047306801684E
:1022500021F48061016070470A68084642F4807288
:10226000026070472068016841F4007101607047A6
:10227000414620466AE02DE9F041069F05460E469C
:1022800090461C4631022868090E01290CBF40699E
:102290008069304080B2B1B288420CBF012000207A
:1022A00040450DD114F1010FECD000F00FFAC01B26
:1022B000844201D3002CE5D100F065F8012000E054
:1022C0000020BDE8F081F8B505460E4614461F46CD
:1022D0003102090E286801291AD14169314089B2B9
:1022E000B2B291421AD04069410519D5286800F070
:1022F00025F82A685061002105F13C00296320225D
:1023000042708170426842F004024260017013E042
:102310008169314089B2B2B29142E4D10020F2BD6C
:1023200014F1010FD4D000F0D1F9C01B844201D3C5
:10233000002CCDD100F027F80120F2BD0268014643
:1023400042F400720A606FF48060704770B5054611
:102350000C46164628684169080612D4284600F043
:102360006AF808B1012070BD14F1010FF2D000F03D
:10237000ADF9801B844201D3002CEBD100F003F8AF
:10238000F0E7002070BD00202863202105F13C000B
:10239000002241708270416841F02001416002706A
:1023A000704770B505460C461646286841694807CF
:1023B00012D4284600F03FF808B1012070BD14F196
:1023C000010FF2D000F082F9801B844201D3002C6F
:1023D000EBD1FFF7D8FFF0E7002070BD70B50546E0
:1023E0000C461646286841694A0618D44169CA064F
:1023F00007D400F06BF9801B84420BD3002CF1D181
:1024000008E06FF01001416100F00BF841600270CC
:10241000012070BD00F005F841F02001F6E7002032
:1024200070BD00202863202105F13C00002241708E
:1024300082704168704710B501684A6953050DD52F
:102440006FF480644C61002101633C3020234370B1
:102450008170436843F004034360017012F48060AC
:1024600018BF0120C0B210BD82B000200090002231
:102470003D48416841F480414160416801F4804138
:10248000009100990092036843F080530360006854
:1024900000F0805000900098072002B000F029B9A9
:1024A00010B586B000F059F82168304881421FD13C
:1024B00000222F4C00921222206840F0020020607F
:1024C000216801F0020100914FF440610098294811
:1024D00000F038F8042100F03BF80020009021695A
:1024E00041F480012161206900F48000009000988F
:1024F00006B010BD10B586B000F02FF821681E4858
:1025000081421DD100221A480092016941F4003134
:102510000161016901F400310091009900920C21E0
:10252000036843F0010303600222006800F0010029
:1025300000900098114800F005F8072100F008F815
:1025400006B010BD01910292012103910322704750
:102550000591049201A900F013B904461422002148
:1025600001A800F00BBA00004038024000580040BB
:1025700030380240000402400044004000000240A5
:102580002DE9F04104000F4654D0494E306800F068
:102590000700B84202D200F073F84BD12068454DD5
:1025A000810712D5400703D5A96841F4E051A9601D
:1025B0002078010703D5A86840F46040A860A968A6
:1025C000A06821F0F0010143A9602178C80729D54E
:1025D0006068012802D129688A0305E0022818BF33
:1025E000032803D129688A0103D423E029688A07D4
:1025F00020D5A968890840EA8100A86000F066F843
:102600008046A868616800F00C00B0EB810F09D02B
:1026100000F05CF8A0EB080041F289318842F0D369
:1026200003202BE0306800F00700874204D200F05E
:1026300027F801D0012021E02078410705D5AA68BC
:10264000E06822F4E0520243AA602178080706D528
:10265000A968206921F4604141EAC001A96000F045
:1026600097F9AA681449154BC2F30312895CC84054
:1026700018601348006800F0BBF90020BDE8F08145
:102680003770316801F00701B94270470B480D4AB5
:10269000006813680C49C3F3822206E00748094A20
:1026A000006813680849C3F34232895CC840704728
:1026B000003C0240003802401C350008C4000020E5
:1026C000C000002008380240B035000801484068CA
:1026D000704700BFB80000200901020002D4224860
:1026E00081547047214B02F00F021A4402F8041C77
:1026F00070471F4B19684FF6FF020002114000F4AB
:10270000E06008431B4908431860704770B5184BD8
:102710001C68C4F302230124C3F10705052D2EBF55
:102720000F2504FA05F56D1E1E1D072E34BF00236C
:10273000DB1E2940994004FA03F3BDE870405B1E9C
:102740001A401143C8E7401EB0F1807F01D3012039
:1027500070470949094A48600023F02010708B60D7
:10276000072008600020704700E400E018ED00E05A
:102770000CED00E00000FA0510E000E023ED00E0C1
:102780002DE9F84F0D4600267149724A0F23044681
:1027900001202F68B04000EA0708804540F0D28051
:1027A0004FEA460C032707FA0CF76FEA070E6F682B
:1027B00007F00309B9F1010F1CBF07F00307022F4F
:1027C00012D1A768D5F80C900EEA070709FA0CF9A0
:1027D00049EA0707A760676827EA00006F68C7F340
:1027E0000017B74038436060B0002F7907F0030747
:1027F000032F21D0E768D5F808900EEA070709FAF9
:102800000CF949EA0707E7602F7907F00307022F61
:1028100012D1F70804EB870700F01C09D7F820A0B5
:1028200003FA09FB2AEA0B0AD5F810B00BFA09F9EA
:1028300049EA0A09C7F8209027680EEA070E2F799F
:1028400007F0030707FA0CF747EA0E0CC4F800C0BC
:102850006F68FF0076D5002700974FEA960CD2F8F4
:1028600000E04EF4804EC2F800E000F00C00176863
:1028700007F480470097DDF800E0374F57F82C70D9
:1028800003FA00FE27EA0E0E344FBC4208BF0027B1
:1028900022D0334FBC4208BF01271DD0314FBC426C
:1028A00008BF022718D0304FBC4208BF032713D0FF
:1028B0002E4FBC4208BF04270ED02D4FBC4208BF8C
:1028C000052709D02B4FBC4208BF062704D02A4F4A
:1028D000BC420CBF0727082707FA00F040EA0E00A9
:1028E000DFF874E04EF82C006FEA0800D1F800C061
:1028F0006F6800EA0C0CFF0348BF48EA0C0CC1F8F3
:1029000000C0D1F804C06F6800EA0C0CBF0348BFD8
:1029100048EA0C0CC1F804C0D1F808C06F6800EA9E
:102920000C0CFF0248BF48EA0C0CC1F808C0D1F8F3
:102930000CC000EA0C0C6868800248BF48EA0C0C26
:10294000C1F80CC0761C0F2E7FF622AFBDE8F18FC8
:10295000003C014044380240083801400000024079
:102960000004024000080240000C02400010024037
:102970000014024000180240001C024010B504463A
:1029800010460A460146204600F052F8204610BD87
:1029900030B5144C606800F00C00042802D0082800
:1029A00002D01DE0104830BD22682068002341029B
:1029B00002F03F0204D525680B49C5F3881003E0F7
:1029C00020680A49C0F38810A1FB0001FFF798F8BE
:1029D0002168C1F30141491C4900B0FBF1F030BD51
:1029E000024830BD0438024000127A000024F4008E
:1029F00038B50D4D0D4B2A7804464FF47A7118689E
:102A0000B1FBF2F2B0FBF2F0FFF79DFE50B9102CD3
:102A100008D2002221464FF0FF30FFF777FEAC606E
:102A2000002032BD012032BDB8000020C4000020CB
:102A300062F30F2262F31F42401810F0030308D024
:102A4000C91A1FD3DB0748BF00F8012D28BF20F8A3
:102A5000022D130030B414461546103928BF20E962
:102A60003C00FAD8490728BF20E90C0048BF40F8CD
:102A7000042D890028BF20F8022D48BF00F8012D41
:102A800030BC7047C91818BF00F8012DCB0728BF0C
:102A900000F8012D704700002DE9F843040016D01E
:102AA0002078DFF80463C10713D5B06800F00C008C
:102AB000042807D0B06800F00C0008283DD17068E9
:102AC00041023AD53068810303D56068002800F0E0
:102AD00065812078B54F810719D5B06810F00C0FCB
:102AE00007D0B06800F00C0008285BD17068410284
:102AF00058D43068810703D5E068012840F04E8142
:102B00003168206921F0F80141EAC0013160217883
:102B1000080779D56069A649002868D001220A60B3
:102B2000FFF7D4FD0546706F81076DD4FFF7CEFD2A
:102B3000401B0228F7D9032033E16068B0F5803FDD
:102B400004D1306840F48030306011E0B0F5A02F3F
:102B5000306806D140F480203060316841F4803123
:102B600005E020F480303060316821F4802131604C
:102B7000606858B1FFF7AAFD054630688103A8D404
:102B8000FFF7A4FD401B6528F7D3D4E7FFF79EFDB0
:102B90000546306881039CD5FFF798FD401B6528EA
:102BA000F7D3C8E7E068A8B101213960FFF78EFDCF
:102BB00005463068810705D4FFF788FD401B0228D1
:102BC000F7D9B8E73068216920F0F80040EAC10081
:102BD00030609CE73860FFF779FD0546316888076B
:102BE00095D5FFF773FD401B0228F7D9A3E70860CE
:102BF000FFF76CFD0546706F810705D5FFF766FD91
:102C0000401B0228F7D996E72078410760D5306C41
:102C10000025C1000BD4002000900125316C41F04B
:102C200080513164306C00F0805000900098DFF8E3
:102C30008481D8F80000C10513D4D8F8000040F40E
:102C40008070C8F80000FFF741FD8146D8F8000009
:102C5000C10506D4FFF73AFDA0EB09000228F5D91B
:102C600069E7A068012805D00528306F06D140F03B
:102C700004003067306F40F0010005E0400840007C
:102C80003067306F20F00400306741F28938A06867
:102C900060B1FFF71BFD8146306F810713D4FFF74A
:102CA00015FDA0EB09004045F6D344E7FFF70EFD04
:102CB0008146306F810706D5FFF708FDA0EB0900BC
:102CC0004045F6D337E71DB1306C20F080503064BA
:102CD000A069002864D0B16801F00C0108293AD03D
:102CE00002282AD100203866FFF7F0FC054630683C
:102CF000810105D5FFF7EAFC401B0228F7D91AE746
:102D0000E069216A626A0843A16A490840EA8210C0
:102D1000491E40EA0140E16A40EA0160706001201A
:102D20003866FFF7D3FC04463068810138D4FFF7DA
:102D3000CDFC001B0228F7D9FDE600203866FFF71E
:102D4000C5FC0446306881012AD5FFF7BFFC001B93
:102D50000228F7D9EFE6012820D07068E26900F474
:102D60008001914202BF00F03F01226A914201BFFF
:102D700047F6C0710140626AB1EB821F0ED1A26AB0
:102D800000F4403101F580315208B1EB024F02BF2F
:102D900000F07060E16AB0EB016F01D0012000E04B
:102DA0000020BDE8F28300BF003802400000474227
:102DB000800E47420070004038B5040001D1012068
:102DC00032BD00F028F808B900F016F800F019F844
:102DD00000F025F8FFE7416100F001F832BD2068FE
:102DE000C16841F40051C160002068602021697011
:102DF0002020A87000207047002129702046FFF78E
:102E000079BB242068702068C16821F40051C1603A
:102E1000204600F0F8B804F13C0568787047206857
:102E2000016921F4904101612068416921F02A0182
:102E300070472DE9F843054605F13C060C467078CD
:102E400020281746994649D10CB1380001D10120FC
:102E500045E03078012841D00121317000207060B8
:102E600021227270FFF732FCAF848046EF84A8689D
:102E7000B0F5805F04BF286900280EBF27462046B2
:102E800000270021317004460EE014F8012B426047
:102E900007E02868002CF8D137F8021BC1F30801BD
:102EA0004160E88C411EE9844346E88CCDF80090EF
:102EB000002807D000228021284600F071F8002861
:102EC000E7D005E000224021284600F069F808B16B
:102ED000032004E020207070002000E00220BDE804
:102EE000F2832DE9F843054605F13C070C46B87816
:102EF00020281646994650D1002C14BF002E0120E0
:102F00004CD03878012848D00121397000207860F1
:102F10002222BA702863FFF7D9FBAE858046EE8582
:102F2000A868B0F5805F04BF286900280EBF264658
:102F3000204600260021397004460EE028684068CB
:102F400000F07F0022E0B4B928684168C1F30801AD
:102F500026F8021BE88D411EE985E88DC8B1CDF841
:102F60000090434600222021284600F019F800284E
:102F7000E9D0032012E0A868B0F5805F04D00028F3
:102F800004BF28690028D9D12968486804F8010BD2
:102F9000E0E72020B870002000E00220BDE8F283C6
:102FA0002DE9F041069C05460E4690461F462868CE
:102FB00001683140B1420CBF01200020404519D1C9
:102FC00014F1010FF3D024B1FFF780FBC01B844242
:102FD000EDD22868C16821F4D071C160202200F0D0
:102FE0000CF805F13C002021417082700021017035
:102FF000032000E00020BDE8F0812868416949080D
:1030000049004161704770B5044622681169E06863
:1030100021F4405101431161D3682748A16803405E
:1030200020690B4361690343E0690B430343D360A9
:103030005169A06921F44071014351611F498A42DD
:103040001CBF1F48824202D1FFF728FB01E0FFF7B7
:103050001DFB62682568E4691921B4F5004FA1FBE6
:1030600000016FF0630612D1D30F5200FEF748FD46
:1030700000F028F8F60032366420B6FBF0F042008B
:1030800002F4F87202EB011200F0070010E0930F57
:103090009200FEF735FD00F015F836013236642057
:1030A000B6FBF0F000F0F00202EB011200F00F00AE
:1030B0008018A86070BD0000F369FFFF0010014098
:1030C000001401406421B0FBF1F106FB01067047DA
:1030D00030B58BB000F0FAF800F08FF800200090C7
:1030E0006D4C6E48016841F080010160026802F099
:1030F00080020092002200990092036843F00103CD
:103100000360016801F00101009100996449009297
:103110000368644A43F002030360006800F00200A1
:103120000090009821600020A06000214FF48040B2
:1031300020616260E1606161A161E161216220461C
:10314000FEF770FD08B100F0B5F8574860654FF420
:10315000E131A1650020E065206660660C21E06633
:103160002067A16604F15400FFF726FE08B100F0C5
:10317000A1F8204600F0C4F808B100F09BF8112037
:1031800000F0D4F858B100F095F808E06423162256
:1031900004F1A00104F15400FFF74BFE17E004F125
:1031A000980000F0F1F80028F0D0D4F8980000F072
:1031B00027F902464FEA01033FA101A800F044F9B4
:1031C000C2B2642301A904F15400FFF732FE04F1F6
:1031D0009C0500F00BF8FFF784FE18B900F006F824
:1031E000FFF727FEC82000F04FF9D8E74FF4FA7335
:1031F0000122294604F15400704780B592B0302274
:10320000002106A8FFF7BAFB1422002101A8FFF74E
:10321000B5FB002000902548016841F08051016015
:103220000021006800F08050009000982048009134
:103230000221026822F4804202600122006800F448
:103240008040009000980691099210210A91022274
:1032500000210C920D91082254210E920F9102220E
:1032600004211092119106A8FFF716FC08B100F096
:1032700021F8022102910F204FF480510190002289
:10328000049103920592022101A8FFF779F908B190
:1032900000F010F813B000BD0000002030380240EC
:1032A00000580040A0860100004400404038024021
:1032B0000070004072B6FEE7424831373530204C8E
:1032C00075783A20252E32660A0D000080B50B482D
:1032D000016841F400710160026842F4806202609A
:1032E000016841F4807101600320FFF702FA0020B9
:1032F000FFF77EFBFFF7B8F8002002BD003C02405C
:1033000010B53E49486000F00AF808B1012404E015
:10331000452000F01CF800B90024E0B210BD1CB537
:1033200007208DF804000A24344806E011B581B066
:1033300032489DF8041001700A244068009401236B
:1033400001AA4621FEF708FD00B1012016BD1CB5FB
:103350002A4C6070410900F01F0040F060008DF8B9
:10336000050041F040010A2000908DF8041001236F
:10337000606801AA4621FEF7EFFC0A2100910123B3
:1033800060680DF10502DCE73EB504460A201B4DDE
:1033900000900223686801AA4621FEF778FD30BB41
:1033A0009DF804009DF8051041EA0021687800EEC0
:1033B000101A4528B8EEC00A09D000EE900AF8EEBF
:1033C000600A9FED0C1AC1EE200A20EE800A2878D0
:1033D000212812BF1128F6EE000A20EE200A9FEDE8
:1033E000061A80EE010A84ED000A00203EBD01208D
:1033F0003EBD000000008A429A99993F00010020DA
:10340000C0F3C75181B1FF2906D0C110400721F098
:10341000E04101F16051704741020CBF40F4E0010E
:103420006FF000410020704700F0004100020AD018
:10343000B0FA80FC00FA0CF001F16051A1EB0C51E4
:1034400001EBD021400570470CB430B583B00A467B
:1034500006A90291044600250194009502AB01A93A
:10346000084878441E30FCF792FE019A1570002837
:103470004EBF04460198041B204603B030BC5DF8E3
:103480000CFB00BFFFDBFFFF38B50446FFF71EF95A
:1034900014F1010F054602D0044801786418FFF7C3
:1034A00015F9401BA042FAD331BD00BFB80000207F
:1034B00010B5074979441831064C7C44163404E0B1
:1034C0000A68081D114488470146A142F8D110BD81
:1034D0002C000000380000004EF68851CEF20001AA
:1034E000086840F470000860BFF34F8FBFF36F8F20
:1034F0004FF00170E1EE100A7047000037DBFFFF6C
:10350000FC010000AE00000000000020024801683D
:1035100041F470010160704788ED00E00000000098
:1035200000000000010203040607080900F00DF87E
:10353000002801D0FFF7BCFFAFF300800020AFF3FD
:103540000080FFF7C5FD00F002F80120704700F091
:1035500001B8000007463846FEF75AFBFBE70000BB
:103560000548014603B4684680F30988AFF300803C
:10357000FFF7B2FFFFF7DAFFA5EDF5FEFEE7FEE786
:10358000FEE7FEE7FEE770477047704700F000B8BF
:103590000248416802788A1842607047B8000020EB
:1035A00001488047014800470D3500086135000893
:1035B0000000000001020304FFF7FEBFFFF7FEBF9B
:1035C000FFF7FEBFFFF7FEBFFFF7FEBFFFF7FEBF2F
:1035D000FFF7FEBFFFF7FEBFFFF7FEBFFFF7FEBF1F
:1035E000FFF7FEBFFFF7FEBFFFF7FEBFFFF7FEBF0F
:1035F000FFF7FEBFFFF7FEBFFFF7FEBFFFF7FEBFFF
:10360000FFF7FEBFFFF7FEBFFFF7FEBFFFF7FEBFEE
:10361000FFF7FEBFFFF7FEBFFFF7FEBFFFF7FEBFDE
:10362000FFF7FEBFFFF7FEBFFFF7FEBFFFF7FEBFCE
:10363000FFF7FEBFFFF7FEBFFFF7FEBFFFF7FEBFBE
:10364000FFF7FEBFFFF7FEBFFFF7FEBFFFF7FEBFAE
:10365000FFF7FEBFFFF7FEBFFFF7FEBFFFF7FEBF9E
:10366000FFF7FEBFFFF7FEBFFFF7FEBFFFF7FEBF8E
:10367000FFF7FEBFFFF7FEBFFFF7FEBFFFF7FEBF7E
:10368000FFF7FEBFFFF7FEBFFFF7FEBFFFF7FEBF6E
:10369000FFF7FEBFFFF7FEBFFFF7FEBFFFF7FEBF5E
:1036A000FFF7FEBFFFF7FEBFFFF7FEBFFFF7FEBF4E
:1036B000FFF7FEBFFFF7FEBFFFF7FEBFFFF7FEBF3E
:1036C000FFF7FEBFFFF7FEBFFFF7FEBFFFF7FEBF2E
:1036D000FFF7FEBFFFF7FEBFFFF7FEBFFFF7FEBF1E
:1036E000FFF7FEBFFFF7FEBFFFF7FEBFFFF7FEBF0E
:1036F000FFF7FEBFFFF7FEBFFFF7FEBF8100DF0051
:10370000142F724572726F72206D656173757269E4
:103710006E6720212F6EFD000001F9000010FC00F3
:103720001E24F4000212000802120008021200080F
:103730000212000802120008021200080212000819
:10374000F8FF0B021100080212000802120008FA2A
:03375000FFF20085
:040000050800356159
:00000001FF
